{
  "_format": "hh-sol-artifact-1",
  "contractName": "ERC20_TOKEN",
  "sourceName": "contracts/ERC20_TOKEN.sol",
  "abi": [
    {
      "inputs": [],
      "stateMutability": "nonpayable",
      "type": "constructor"
    },
    {
      "anonymous": false,
      "inputs": [
        {
          "indexed": true,
          "internalType": "address",
          "name": "owner",
          "type": "address"
        },
        {
          "indexed": true,
          "internalType": "address",
          "name": "spender",
          "type": "address"
        },
        {
          "indexed": false,
          "internalType": "uint256",
          "name": "value",
          "type": "uint256"
        }
      ],
      "name": "Approval",
      "type": "event"
    },
    {
      "anonymous": false,
      "inputs": [
        {
          "indexed": true,
          "internalType": "address",
          "name": "from",
          "type": "address"
        },
        {
          "indexed": true,
          "internalType": "address",
          "name": "to",
          "type": "address"
        },
        {
          "indexed": false,
          "internalType": "uint256",
          "name": "value",
          "type": "uint256"
        }
      ],
      "name": "Transfer",
      "type": "event"
    },
    {
      "inputs": [
        {
          "internalType": "address",
          "name": "owner",
          "type": "address"
        },
        {
          "internalType": "address",
          "name": "spender",
          "type": "address"
        }
      ],
      "name": "allowance",
      "outputs": [
        {
          "internalType": "uint256",
          "name": "",
          "type": "uint256"
        }
      ],
      "stateMutability": "view",
      "type": "function"
    },
    {
      "inputs": [
        {
          "internalType": "address",
          "name": "spender",
          "type": "address"
        },
        {
          "internalType": "uint256",
          "name": "amount",
          "type": "uint256"
        }
      ],
      "name": "approve",
      "outputs": [
        {
          "internalType": "bool",
          "name": "",
          "type": "bool"
        }
      ],
      "stateMutability": "nonpayable",
      "type": "function"
    },
    {
      "inputs": [
        {
          "internalType": "address",
          "name": "account",
          "type": "address"
        }
      ],
      "name": "balanceOf",
      "outputs": [
        {
          "internalType": "uint256",
          "name": "",
          "type": "uint256"
        }
      ],
      "stateMutability": "view",
      "type": "function"
    },
    {
      "inputs": [
        {
          "internalType": "uint256",
          "name": "amount",
          "type": "uint256"
        }
      ],
      "name": "burn",
      "outputs": [],
      "stateMutability": "nonpayable",
      "type": "function"
    },
    {
      "inputs": [],
      "name": "decimals",
      "outputs": [
        {
          "internalType": "uint8",
          "name": "",
          "type": "uint8"
        }
      ],
      "stateMutability": "view",
      "type": "function"
    },
    {
      "inputs": [
        {
          "internalType": "address",
          "name": "spender",
          "type": "address"
        },
        {
          "internalType": "uint256",
          "name": "subtractedValue",
          "type": "uint256"
        }
      ],
      "name": "decreaseAllowance",
      "outputs": [
        {
          "internalType": "bool",
          "name": "",
          "type": "bool"
        }
      ],
      "stateMutability": "nonpayable",
      "type": "function"
    },
    {
      "inputs": [],
      "name": "getOwner",
      "outputs": [
        {
          "internalType": "address",
          "name": "",
          "type": "address"
        }
      ],
      "stateMutability": "view",
      "type": "function"
    },
    {
      "inputs": [
        {
          "internalType": "address",
          "name": "spender",
          "type": "address"
        },
        {
          "internalType": "uint256",
          "name": "addedValue",
          "type": "uint256"
        }
      ],
      "name": "increaseAllowance",
      "outputs": [
        {
          "internalType": "bool",
          "name": "",
          "type": "bool"
        }
      ],
      "stateMutability": "nonpayable",
      "type": "function"
    },
    {
      "inputs": [
        {
          "internalType": "address",
          "name": "to",
          "type": "address"
        },
        {
          "internalType": "uint256",
          "name": "amount",
          "type": "uint256"
        }
      ],
      "name": "mint",
      "outputs": [],
      "stateMutability": "nonpayable",
      "type": "function"
    },
    {
      "inputs": [],
      "name": "name",
      "outputs": [
        {
          "internalType": "string",
          "name": "",
          "type": "string"
        }
      ],
      "stateMutability": "view",
      "type": "function"
    },
    {
      "inputs": [],
      "name": "symbol",
      "outputs": [
        {
          "internalType": "string",
          "name": "",
          "type": "string"
        }
      ],
      "stateMutability": "view",
      "type": "function"
    },
    {
      "inputs": [],
      "name": "totalSupply",
      "outputs": [
        {
          "internalType": "uint256",
          "name": "",
          "type": "uint256"
        }
      ],
      "stateMutability": "view",
      "type": "function"
    },
    {
      "inputs": [
        {
          "internalType": "address",
          "name": "to",
          "type": "address"
        },
        {
          "internalType": "uint256",
          "name": "amount",
          "type": "uint256"
        }
      ],
      "name": "transfer",
      "outputs": [
        {
          "internalType": "bool",
          "name": "",
          "type": "bool"
        }
      ],
      "stateMutability": "nonpayable",
      "type": "function"
    },
    {
      "inputs": [
        {
          "internalType": "address",
          "name": "from",
          "type": "address"
        },
        {
          "internalType": "address",
          "name": "to",
          "type": "address"
        },
        {
          "internalType": "uint256",
          "name": "amount",
          "type": "uint256"
        }
      ],
      "name": "transferFrom",
      "outputs": [
        {
          "internalType": "bool",
          "name": "",
          "type": "bool"
        }
      ],
      "stateMutability": "nonpayable",
      "type": "function"
    },
    {
      "inputs": [
        {
          "internalType": "address",
          "name": "newOwner",
          "type": "address"
        }
      ],
      "name": "transferOwnership",
      "outputs": [],
      "stateMutability": "nonpayable",
      "type": "function"
    }
  ],
  "bytecode": "0x60806040523480156200001157600080fd5b506040518060400160405280600b81526020017f536d6172745f746f6b656e0000000000000000000000000000000000000000008152506040518060400160405280600581526020017f534d415254000000000000000000000000000000000000000000000000000000815250816003908051906020019062000096929190620002b9565b508060049080519060200190620000af929190620002b9565b50505033600560006101000a81548173ffffffffffffffffffffffffffffffffffffffff021916908373ffffffffffffffffffffffffffffffffffffffff1602179055506200013233620001086200013860201b60201c565b6014620001169190620004c4565b620f424062000126919062000601565b6200014160201b60201c565b6200071a565b60006012905090565b600073ffffffffffffffffffffffffffffffffffffffff168273ffffffffffffffffffffffffffffffffffffffff161415620001b4576040517f08c379a0000000000000000000000000000000000000000000000000000000008152600401620001ab90620003bc565b60405180910390fd5b620001c860008383620002af60201b60201c565b8060026000828254620001dc91906200040c565b92505081905550806000808473ffffffffffffffffffffffffffffffffffffffff1673ffffffffffffffffffffffffffffffffffffffff168152602001908152602001600020600082825401925050819055508173ffffffffffffffffffffffffffffffffffffffff16600073ffffffffffffffffffffffffffffffffffffffff167fddf252ad1be2c89b69c2b068fc378daa952ba7f163c4a11628f55a4df523b3ef836040516200028f9190620003de565b60405180910390a3620002ab60008383620002b460201b60201c565b5050565b505050565b505050565b828054620002c79062000679565b90600052602060002090601f016020900481019282620002eb576000855562000337565b82601f106200030657805160ff191683800117855562000337565b8280016001018555821562000337579182015b828111156200033657825182559160200191906001019062000319565b5b5090506200034691906200034a565b5090565b5b80821115620003655760008160009055506001016200034b565b5090565b600062000378601f83620003fb565b91507f45524332303a206d696e7420746f20746865207a65726f2061646472657373006000830152602082019050919050565b620003b68162000662565b82525050565b60006020820190508181036000830152620003d78162000369565b9050919050565b6000602082019050620003f56000830184620003ab565b92915050565b600082825260208201905092915050565b6000620004198262000662565b9150620004268362000662565b9250827fffffffffffffffffffffffffffffffffffffffffffffffffffffffffffffffff038211156200045e576200045d620006af565b5b828201905092915050565b6000808291508390505b6001851115620004bb57808604811115620004935762000492620006af565b5b6001851615620004a35780820291505b8081029050620004b3856200070d565b945062000473565b94509492505050565b6000620004d18262000662565b9150620004de836200066c565b92506200050d7fffffffffffffffffffffffffffffffffffffffffffffffffffffffffffffffff848462000515565b905092915050565b600082620005275760019050620005fa565b81620005375760009050620005fa565b81600181146200055057600281146200055b5762000591565b6001915050620005fa565b60ff84111562000570576200056f620006af565b5b8360020a9150848211156200058a5762000589620006af565b5b50620005fa565b5060208310610133831016604e8410600b8410161715620005cb5782820a905083811115620005c557620005c4620006af565b5b620005fa565b620005da848484600162000469565b92509050818404811115620005f457620005f3620006af565b5b81810290505b9392505050565b60006200060e8262000662565b91506200061b8362000662565b9250817fffffffffffffffffffffffffffffffffffffffffffffffffffffffffffffffff0483118215151615620006575762000656620006af565b5b828202905092915050565b6000819050919050565b600060ff82169050919050565b600060028204905060018216806200069257607f821691505b60208210811415620006a957620006a8620006de565b5b50919050565b7f4e487b7100000000000000000000000000000000000000000000000000000000600052601160045260246000fd5b7f4e487b7100000000000000000000000000000000000000000000000000000000600052602260045260246000fd5b60008160011c9050919050565b6119a1806200072a6000396000f3fe608060405234801561001057600080fd5b50600436106100f55760003560e01c806342966c6811610097578063a457c2d711610066578063a457c2d714610288578063a9059cbb146102b8578063dd62ed3e146102e8578063f2fde38b14610318576100f5565b806342966c681461020057806370a082311461021c578063893d20e81461024c57806395d89b411461026a576100f5565b806323b872dd116100d357806323b872dd14610166578063313ce5671461019657806339509351146101b457806340c10f19146101e4576100f5565b806306fdde03146100fa578063095ea7b31461011857806318160ddd14610148575b600080fd5b610102610334565b60405161010f91906115ea565b60405180910390f35b610132600480360381019061012d91906110ea565b6103c6565b60405161013f91906115cf565b60405180910390f35b6101506103e9565b60405161015d919061176c565b60405180910390f35b610180600480360381019061017b919061109b565b6103f3565b60405161018d91906115cf565b60405180910390f35b61019e610422565b6040516101ab9190611787565b60405180910390f35b6101ce60048036038101906101c991906110ea565b61042b565b6040516101db91906115cf565b60405180910390f35b6101fe60048036038101906101f991906110ea565b610462565b005b61021a60048036038101906102159190611126565b610500565b005b61023660048036038101906102319190611036565b61050d565b604051610243919061176c565b60405180910390f35b610254610555565b60405161026191906115b4565b60405180910390f35b61027261057f565b60405161027f91906115ea565b60405180910390f35b6102a2600480360381019061029d91906110ea565b610611565b6040516102af91906115cf565b60405180910390f35b6102d260048036038101906102cd91906110ea565b610688565b6040516102df91906115cf565b60405180910390f35b61030260048036038101906102fd919061105f565b6106ab565b60405161030f919061176c565b60405180910390f35b610332600480360381019061032d9190611036565b610732565b005b6060600380546103439061189c565b80601f016020809104026020016040519081016040528092919081815260200182805461036f9061189c565b80156103bc5780601f10610391576101008083540402835291602001916103bc565b820191906000526020600020905b81548152906001019060200180831161039f57829003601f168201915b5050505050905090565b6000806103d1610806565b90506103de81858561080e565b600191505092915050565b6000600254905090565b6000806103fe610806565b905061040b8582856109d9565b610416858585610a65565b60019150509392505050565b60006012905090565b600080610436610806565b905061045781858561044885896106ab565b61045291906117be565b61080e565b600191505092915050565b600560009054906101000a900473ffffffffffffffffffffffffffffffffffffffff1673ffffffffffffffffffffffffffffffffffffffff163373ffffffffffffffffffffffffffffffffffffffff16146104f2576040517f08c379a00000000000000000000000000000000000000000000000000000000081526004016104e9906116ac565b60405180910390fd5b6104fc8282610cdd565b5050565b61050a3382610e34565b50565b60008060008373ffffffffffffffffffffffffffffffffffffffff1673ffffffffffffffffffffffffffffffffffffffff168152602001908152602001600020549050919050565b6000600560009054906101000a900473ffffffffffffffffffffffffffffffffffffffff16905090565b60606004805461058e9061189c565b80601f01602080910402602001604051908101604052809291908181526020018280546105ba9061189c565b80156106075780601f106105dc57610100808354040283529160200191610607565b820191906000526020600020905b8154815290600101906020018083116105ea57829003601f168201915b5050505050905090565b60008061061c610806565b9050600061062a82866106ab565b90508381101561066f576040517f08c379a00000000000000000000000000000000000000000000000000000000081526004016106669061172c565b60405180910390fd5b61067c828686840361080e565b60019250505092915050565b600080610693610806565b90506106a0818585610a65565b600191505092915050565b6000600160008473ffffffffffffffffffffffffffffffffffffffff1673ffffffffffffffffffffffffffffffffffffffff16815260200190815260200160002060008373ffffffffffffffffffffffffffffffffffffffff1673ffffffffffffffffffffffffffffffffffffffff16815260200190815260200160002054905092915050565b600560009054906101000a900473ffffffffffffffffffffffffffffffffffffffff1673ffffffffffffffffffffffffffffffffffffffff163373ffffffffffffffffffffffffffffffffffffffff16146107c2576040517f08c379a00000000000000000000000000000000000000000000000000000000081526004016107b9906116ac565b60405180910390fd5b80600560006101000a81548173ffffffffffffffffffffffffffffffffffffffff021916908373ffffffffffffffffffffffffffffffffffffffff16021790555050565b600033905090565b600073ffffffffffffffffffffffffffffffffffffffff168373ffffffffffffffffffffffffffffffffffffffff16141561087e576040517f08c379a00000000000000000000000000000000000000000000000000000000081526004016108759061170c565b60405180910390fd5b600073ffffffffffffffffffffffffffffffffffffffff168273ffffffffffffffffffffffffffffffffffffffff1614156108ee576040517f08c379a00000000000000000000000000000000000000000000000000000000081526004016108e59061164c565b60405180910390fd5b80600160008573ffffffffffffffffffffffffffffffffffffffff1673ffffffffffffffffffffffffffffffffffffffff16815260200190815260200160002060008473ffffffffffffffffffffffffffffffffffffffff1673ffffffffffffffffffffffffffffffffffffffff168152602001908152602001600020819055508173ffffffffffffffffffffffffffffffffffffffff168373ffffffffffffffffffffffffffffffffffffffff167f8c5be1e5ebec7d5bd14f71427d1e84f3dd0314c0f7b2291e5b200ac8c7c3b925836040516109cc919061176c565b60405180910390a3505050565b60006109e584846106ab565b90507fffffffffffffffffffffffffffffffffffffffffffffffffffffffffffffffff8114610a5f5781811015610a51576040517f08c379a0000000000000000000000000000000000000000000000000000000008152600401610a489061166c565b60405180910390fd5b610a5e848484840361080e565b5b50505050565b600073ffffffffffffffffffffffffffffffffffffffff168373ffffffffffffffffffffffffffffffffffffffff161415610ad5576040517f08c379a0000000000000000000000000000000000000000000000000000000008152600401610acc906116ec565b60405180910390fd5b600073ffffffffffffffffffffffffffffffffffffffff168273ffffffffffffffffffffffffffffffffffffffff161415610b45576040517f08c379a0000000000000000000000000000000000000000000000000000000008152600401610b3c9061160c565b60405180910390fd5b610b50838383611002565b60008060008573ffffffffffffffffffffffffffffffffffffffff1673ffffffffffffffffffffffffffffffffffffffff16815260200190815260200160002054905081811015610bd6576040517f08c379a0000000000000000000000000000000000000000000000000000000008152600401610bcd9061168c565b60405180910390fd5b8181036000808673ffffffffffffffffffffffffffffffffffffffff1673ffffffffffffffffffffffffffffffffffffffff16815260200190815260200160002081905550816000808573ffffffffffffffffffffffffffffffffffffffff1673ffffffffffffffffffffffffffffffffffffffff168152602001908152602001600020600082825401925050819055508273ffffffffffffffffffffffffffffffffffffffff168473ffffffffffffffffffffffffffffffffffffffff167fddf252ad1be2c89b69c2b068fc378daa952ba7f163c4a11628f55a4df523b3ef84604051610cc4919061176c565b60405180910390a3610cd7848484611007565b50505050565b600073ffffffffffffffffffffffffffffffffffffffff168273ffffffffffffffffffffffffffffffffffffffff161415610d4d576040517f08c379a0000000000000000000000000000000000000000000000000000000008152600401610d449061174c565b60405180910390fd5b610d5960008383611002565b8060026000828254610d6b91906117be565b92505081905550806000808473ffffffffffffffffffffffffffffffffffffffff1673ffffffffffffffffffffffffffffffffffffffff168152602001908152602001600020600082825401925050819055508173ffffffffffffffffffffffffffffffffffffffff16600073ffffffffffffffffffffffffffffffffffffffff167fddf252ad1be2c89b69c2b068fc378daa952ba7f163c4a11628f55a4df523b3ef83604051610e1c919061176c565b60405180910390a3610e3060008383611007565b5050565b600073ffffffffffffffffffffffffffffffffffffffff168273ffffffffffffffffffffffffffffffffffffffff161415610ea4576040517f08c379a0000000000000000000000000000000000000000000000000000000008152600401610e9b906116cc565b60405180910390fd5b610eb082600083611002565b60008060008473ffffffffffffffffffffffffffffffffffffffff1673ffffffffffffffffffffffffffffffffffffffff16815260200190815260200160002054905081811015610f36576040517f08c379a0000000000000000000000000000000000000000000000000000000008152600401610f2d9061162c565b60405180910390fd5b8181036000808573ffffffffffffffffffffffffffffffffffffffff1673ffffffffffffffffffffffffffffffffffffffff1681526020019081526020016000208190555081600260008282540392505081905550600073ffffffffffffffffffffffffffffffffffffffff168373ffffffffffffffffffffffffffffffffffffffff167fddf252ad1be2c89b69c2b068fc378daa952ba7f163c4a11628f55a4df523b3ef84604051610fe9919061176c565b60405180910390a3610ffd83600084611007565b505050565b505050565b505050565b60008135905061101b8161193d565b92915050565b60008135905061103081611954565b92915050565b60006020828403121561104857600080fd5b60006110568482850161100c565b91505092915050565b6000806040838503121561107257600080fd5b60006110808582860161100c565b92505060206110918582860161100c565b9150509250929050565b6000806000606084860312156110b057600080fd5b60006110be8682870161100c565b93505060206110cf8682870161100c565b92505060406110e086828701611021565b9150509250925092565b600080604083850312156110fd57600080fd5b600061110b8582860161100c565b925050602061111c85828601611021565b9150509250929050565b60006020828403121561113857600080fd5b600061114684828501611021565b91505092915050565b61115881611814565b82525050565b61116781611826565b82525050565b6000611178826117a2565b61118281856117ad565b9350611192818560208601611869565b61119b8161192c565b840191505092915050565b60006111b36023836117ad565b91507f45524332303a207472616e7366657220746f20746865207a65726f206164647260008301527f65737300000000000000000000000000000000000000000000000000000000006020830152604082019050919050565b60006112196022836117ad565b91507f45524332303a206275726e20616d6f756e7420657863656564732062616c616e60008301527f63650000000000000000000000000000000000000000000000000000000000006020830152604082019050919050565b600061127f6022836117ad565b91507f45524332303a20617070726f766520746f20746865207a65726f20616464726560008301527f73730000000000000000000000000000000000000000000000000000000000006020830152604082019050919050565b60006112e5601d836117ad565b91507f45524332303a20696e73756666696369656e7420616c6c6f77616e63650000006000830152602082019050919050565b60006113256026836117ad565b91507f45524332303a207472616e7366657220616d6f756e742065786365656473206260008301527f616c616e636500000000000000000000000000000000000000000000000000006020830152604082019050919050565b600061138b6020836117ad565b91507f4f6e6c7920552063616e20706572666f726d20746865204f7065726174696f6e6000830152602082019050919050565b60006113cb6021836117ad565b91507f45524332303a206275726e2066726f6d20746865207a65726f2061646472657360008301527f73000000000000000000000000000000000000000000000000000000000000006020830152604082019050919050565b60006114316025836117ad565b91507f45524332303a207472616e736665722066726f6d20746865207a65726f20616460008301527f64726573730000000000000000000000000000000000000000000000000000006020830152604082019050919050565b60006114976024836117ad565b91507f45524332303a20617070726f76652066726f6d20746865207a65726f2061646460008301527f72657373000000000000000000000000000000000000000000000000000000006020830152604082019050919050565b60006114fd6025836117ad565b91507f45524332303a2064656372656173656420616c6c6f77616e63652062656c6f7760008301527f207a65726f0000000000000000000000000000000000000000000000000000006020830152604082019050919050565b6000611563601f836117ad565b91507f45524332303a206d696e7420746f20746865207a65726f2061646472657373006000830152602082019050919050565b61159f81611852565b82525050565b6115ae8161185c565b82525050565b60006020820190506115c9600083018461114f565b92915050565b60006020820190506115e4600083018461115e565b92915050565b60006020820190508181036000830152611604818461116d565b905092915050565b60006020820190508181036000830152611625816111a6565b9050919050565b600060208201905081810360008301526116458161120c565b9050919050565b6000602082019050818103600083015261166581611272565b9050919050565b60006020820190508181036000830152611685816112d8565b9050919050565b600060208201905081810360008301526116a581611318565b9050919050565b600060208201905081810360008301526116c58161137e565b9050919050565b600060208201905081810360008301526116e5816113be565b9050919050565b6000602082019050818103600083015261170581611424565b9050919050565b600060208201905081810360008301526117258161148a565b9050919050565b60006020820190508181036000830152611745816114f0565b9050919050565b6000602082019050818103600083015261176581611556565b9050919050565b60006020820190506117816000830184611596565b92915050565b600060208201905061179c60008301846115a5565b92915050565b600081519050919050565b600082825260208201905092915050565b60006117c982611852565b91506117d483611852565b9250827fffffffffffffffffffffffffffffffffffffffffffffffffffffffffffffffff03821115611809576118086118ce565b5b828201905092915050565b600061181f82611832565b9050919050565b60008115159050919050565b600073ffffffffffffffffffffffffffffffffffffffff82169050919050565b6000819050919050565b600060ff82169050919050565b60005b8381101561188757808201518184015260208101905061186c565b83811115611896576000848401525b50505050565b600060028204905060018216806118b457607f821691505b602082108114156118c8576118c76118fd565b5b50919050565b7f4e487b7100000000000000000000000000000000000000000000000000000000600052601160045260246000fd5b7f4e487b7100000000000000000000000000000000000000000000000000000000600052602260045260246000fd5b6000601f19601f8301169050919050565b61194681611814565b811461195157600080fd5b50565b61195d81611852565b811461196857600080fd5b5056fea264697066735822122060c30a88b79e74098d05562bcb7ebc993b2b2527a2982aeb16194e65dd2bd6a464736f6c63430008000033",
  "linkReferences": {},
  "deployedLinkReferences": {}
}